:020000040000FA
:100000000C945D000C9485000C9485000C94850084
:100010000C9485000C9485000C9485000C9485004C
:100020000C9485000C9485000C9485000C9485003C
:100030000C9485000C9485000C9485000C9485002C
:100040000C94CE020C9485000C949C020C947602C5
:100050000C9485000C9485000C9485000C9485000C
:100060000C9485000C94850000000008000201003B
:100070000003040700000000000000000000000072
:10008000250028002B0000000000240027002A0083
:10009000040404040404040402020202020203032E
:1000A0000303030301020408102040800102040836
:1000B0001020010204081020050411241FBECFEFF8
:1000C000D8E0DEBFCDBF11E0A0E0B1E0E4E7F8E0AA
:1000D00002C005900D92A432B107D9F721E0A4E245
:1000E000B1E001C01D92AA3CB207E1F710E0CDE5F6
:1000F000D0E004C02197FE010E943204CC35D10724
:10010000C9F70E9418030C9438040C94000090E086
:10011000FC01EC55FF4F249180579F4FFC018491C7
:10012000882399F090E0880F991FFC01EA57FF4F50
:10013000A591B491FC01E458FF4F859194918FB73C
:10014000F894EC91E22BEC938FBF0895AF92BF929D
:10015000CF92DF92EF92FF920F931F93CF93DF9393
:100160006C017B018B01040F151FEB015E01AE18C2
:10017000BF08C017D10759F06991D601ED91FC91E4
:100180000190F081E02DC6010995892B79F7C50111
:10019000DF91CF911F910F91FF90EF90DF90CF9063
:1001A000BF90AF900895FC01538D448D252F30E012
:1001B000842F90E0821B930B541710F0CF96089574
:1001C00001970895FC01918D828D981761F0A28DA1
:1001D000AE0FBF2FB11D5D968C91928D9F5F9F7367
:1001E000928F90E008958FEF9FEF0895FC01918D1D
:1001F000828D981731F0828DE80FF11D858D90E08A
:1002000008958FEF9FEF0895FC01918D228D892F26
:1002100090E0805C9F4F821B91098F73992708950E
:100220008DE291E00E94040121E0892B09F420E095
:10023000822F089580E090E0892B29F00E94100120
:1002400081110C9400000895FC01A48DA80FB92F12
:10025000B11DA35ABF4F2C91848D90E001968F73EE
:100260009927848FA689B7892C93A089B1898C910D
:10027000837080648C93938D848D981306C002885C
:10028000F389E02D80818F7D80830895EF92FF9226
:100290000F931F93CF93DF93EC0181E0888F9B8DA9
:1002A0008C8D98131AC0E889F989808185FF15C063
:1002B0009FB7F894EE89FF896083E889F989808186
:1002C0008370806480839FBF81E090E0DF91CF9155
:1002D0001F910F91FF90EF900895F62E0B8D10E077
:1002E0000F5F1F4F0F731127E02E8C8D8E110CC0E6
:1002F0000FB607FCFACFE889F989808185FFF5CF31
:10030000CE010E942401F1CFEB8DEC0FFD2FF11DEA
:10031000E35AFF4FF0829FB7F8940B8FEA89FB896D
:1003200080818062CFCFCF93DF93EC01888D8823CB
:10033000B9F0AA89BB89E889F9898C9185FD03C048
:10034000808186FD0DC00FB607FCF7CF8C9185FF2D
:10035000F2CF808185FFEDCFCE010E942401E9CF4D
:10036000DF91CF91089590E0FC01E859FF4F24916F
:10037000FC01EC55FF4F3491FC01E057FF4FE49135
:10038000EE23C9F0222339F0233001F1A8F4213003
:1003900019F1223029F1F0E0EE0FFF1FE458FF4F72
:1003A000A591B4918FB7F894EC91611126C0309566
:1003B0003E233C938FBF08952730A9F02830C9F021
:1003C000243049F7809180008F7D03C080918000A8
:1003D0008F7780938000DFCF84B58F7784BDDBCFAC
:1003E00084B58F7DFBCF8091B0008F778093B00074
:1003F000D2CF8091B0008F7DF9CF3E2BDACF3FB7BF
:10040000F8948091290190912A01A0912B01B0913B
:100410002C0126B5A89B05C02F3F19F00196A11D00
:10042000B11D3FBFBA2FA92F982F8827BC01CD013E
:10043000620F711D811D911D43E0660F771F881F9C
:10044000991F4A95D1F708958F929F92AF92BF92CC
:10045000CF92DF92EF92FF920E94FF014B015C016D
:1004600082E3C82ED12CE12CF12C0E94FF016819E7
:1004700079098A099B09683E734081059105A8F3B3
:1004800021E0C21AD108E108F10888EE880E83E065
:10049000981EA11CB11CC114D104E104F10429F778
:1004A000FF90EF90DF90CF90BF90AF909F908F9094
:1004B0000895CF93DF93FC0101900020E9F7319775
:1004C000AF01481B590BBC018DE291E00E94A600D0
:1004D000EC0142E050E062E171E08DE291E00E94C7
:1004E000A6008C0F9D1FDF91CF9108951F920F9250
:1004F0000FB60F9211242F933F934F935F936F93F7
:100500007F938F939F93AF93BF93EF93FF938DE26E
:1005100091E00E942401FF91EF91BF91AF919F91D3
:100520008F917F916F915F914F913F912F910F909C
:100530000FBE0F901F9018951F920F920FB60F923B
:1005400011242F938F939F93EF93FF93E0913D019D
:10055000F0913E018081E0914301F091440182FDE0
:100560001BC09081809146018F5F8F73209147015E
:10057000821741F0E0914601F0E0E35DFE4F958F78
:1005800080934601FF91EF919F918F912F910F9052
:100590000FBE0F901F9018958081F4CF1F920F927D
:1005A0000FB60F9211242F933F938F939F93AF9386
:1005B000BF938091250190912601A0912701B091D0
:1005C00028013091240126E0230F2D3758F502969B
:1005D000A11DB11D20932401809325019093260134
:1005E000A0932701B09328018091290190912A01BD
:1005F000A0912B01B0912C010196A11DB11D8093FA
:10060000290190932A01A0932B01B0932C01BF9153
:10061000AF919F918F913F912F910F900FBE0F90AF
:100620001F90189529E8230F0396A11DB11DD2CF65
:10063000789484B5826084BD84B5816084BD85B5BD
:10064000826085BD85B5816085BD80916E008160C9
:1006500080936E001092810080918100826080936F
:100660008100809181008160809381008091800071
:100670008160809380008091B10084608093B1009C
:100680008091B00081608093B00080917A00846096
:1006900080937A0080917A00826080937A008091C2
:1006A0007A008E7F80937A0080917A0080688093B0
:1006B0007A001092C100E0913D01F0913E0182E08C
:1006C0008083E0913901F0913A011082E0913B0181
:1006D000F0913C0188E0808310924501E091410156
:1006E000F091420186E08083E0913F01F09140016A
:1006F000808180618083E0913F01F09140018081A1
:1007000088608083E0913F01F091400180818068A2
:100710008083E0913F01F091400180818F7D808353
:1007200085E191E00E94590286E00E94870087E0FF
:100730000E9487008EE00E9487008FE00E94870061
:1007400080E10E94870081E10E94870082E10E948F
:10075000870083E10E948700C0E0D0E08CE191E057
:100760000E94590261E086E00E94B30161E087E0E7
:100770000E94B30161E08EE00E94B30161E08FE06E
:100780000E94B30161E080E10E94B30161E081E178
:100790000E94B30161E082E10E94B30161E083E164
:1007A0000E94B3010E9424028FE191E00E9459024D
:1007B00060E086E00E94B30160E087E00E94B30140
:1007C00060E08EE00E94B30160E08FE00E94B30120
:1007D00060E080E10E94B30160E081E10E94B3012A
:1007E00060E082E10E94B30160E083E10E94B30116
:1007F0000E942402209709F4B1CF0E94100188239F
:1008000009F4ACCF0E940000A9CFEDE2F1E0138221
:10081000128288EE93E0A0E0B0E084839583A68303
:10082000B78384E091E09183808385EC90E09587A5
:10083000848784EC90E09787868780EC90E0918BAA
:10084000808B81EC90E0938B828B82EC90E0958B97
:10085000848B86EC90E0978B868B118E128E138E94
:10086000148E0895EE0FFF1F0590F491E02D09946A
:10087000F894FFCF000000004601A600D3009301CA
:100880000401E200F6000D0A00626C696E6B7900EB
:080890006F6E006F6666000048
:107800000C94343C0C94513C0C94513C0C94513CE1
:107810000C94513C0C94513C0C94513C0C94513CB4
:107820000C94513C0C94513C0C94513C0C94513CA4
:107830000C94513C0C94513C0C94513C0C94513C94
:107840000C94513C0C94513C0C94513C0C94513C84
:107850000C94513C0C94513C0C94513C0C94513C74
:107860000C94513C0C94513C11241FBECFEFD8E036
:10787000DEBFCDBF11E0A0E0B1E0EAE8FFE702C063
:1078800005900D92A230B107D9F712E0A2E0B1E065
:1078900001C01D92AD30B107E1F70E942D3D0C945F
:1078A000C33F0C94003C982F95959595959595958B
:1078B000905D8F708A307CF0282F295A8091C0000B
:1078C00085FFFCCF9093C6008091C00085FFFCCF60
:1078D0002093C6000895282F205DF0CF982F809127
:1078E000C00085FFFCCF9093C6000895EF92FF92F1
:1078F0000F931F93EE24FF2487018091C00087FD22
:1079000017C00894E11CF11C011D111D81E2E8164D
:1079100081EAF80687E0080780E0180770F3E09135
:107920000401F091050109958091C00087FFE9CF1E
:107930008091C6001F910F91FF90EF9008950E94D3
:10794000763C982F8091C00085FFFCCF9093C600B5
:1079500091362CF490330CF09053892F089597555D
:10796000892F08951F930E949F3C182F0E949F3CCF
:107970001295107F810F1F9108951F93182F882350
:1079800021F00E94763C1150E1F71F9108951F935A
:10799000182F0E94763C803249F0809103018F5F5E
:1079A000809303018530C1F01F9108958091C0003C
:1079B00085FFFCCF84E18093C6008091C00085FFE5
:1079C000FCCF1093C6008091C00085FFFCCF80E102
:1079D0008093C6001F910895E0910401F091050184
:1079E00009951F9108950E94763C803241F0809164
:1079F00003018F5F80930301853081F008958091AA
:107A0000C00085FFFCCF84E18093C6008091C00058
:107A100085FFFCCF80E18093C6000895E0910401CA
:107A2000F09105010995089548EC50E08823A1F0F4
:107A30002D9A28EE33E0FA013197F1F721503040CA
:107A4000D1F72D9828EE33E0FA013197F1F7215064
:107A50003040D1F7815061F708953F924F925F9285
:107A60006F927F928F929F92AF92BF92CF92DF924E
:107A7000EF92FF920F931F93CF93DF93000082E06A
:107A80008093C00080E18093C4001092C50088E11B
:107A90008093C10086E08093C2005098589A259A3E
:107AA00081E00E94143D24E1F22E9EE1E92E85E959
:107AB000D82E0FE0C02E10E1B12EAA24A394B1E479
:107AC0009B2EA6E58A2EF2E57F2EE0E26E2E79E46B
:107AD000572E63E5462E50E5352E0E94763C8033C6
:107AE000B1F18133B9F1803409F46FC0813409F404
:107AF00076C0823409F485C0853409F488C08035A5
:107B000031F1823521F1813511F1853509F485C0D6
:107B1000863509F48DC0843609F496C0843709F49B
:107B200003C1853709F472C1863709F466C08091B4
:107B300003018F5F80930301853079F6E0910401A2
:107B4000F091050109950E94763C803351F60E9420
:107B5000F33CC3CF0E94763C803249F78091C0004D
:107B600085FFFCCFF092C6008091C00085FFFCCF5E
:107B70009092C6008091C00085FFFCCF8092C60025
:107B80008091C00085FFFCCF7092C6008091C0003C
:107B900085FFFCCF6092C6008091C00085FFFCCFBE
:107BA0005092C6008091C00085FFFCCF4092C60075
:107BB0008091C00085FFFCCF3092C6008091C0004C
:107BC00085FFFCCFB092C60088CF0E94763C8638F5
:107BD00008F4BDCF0E94763C0E94F33C7ECF0E9409
:107BE000763C803809F49CC0813809F40BC1823896
:107BF00009F430C1883909F48FC080E00E94C73C85
:107C00006CCF84E10E94BD3C0E94F33C66CF85E0CE
:107C10000E94BD3C0E94F33C60CF0E94763C809362
:107C200006010E94763C809307010E94F33C55CFE9
:107C30000E94763C803309F411C183E00E94BD3C70
:107C400080E00E94C73C49CF0E94763C80930902A5
:107C50000E94763C8093080280910C028E7F809374
:107C60000C020E94763C853409F409C18091080217
:107C700090910902892B89F000E010E00E94763C87
:107C8000F801E85FFE4F80830F5F1F4F809108026D
:107C9000909109020817190788F30E94763C8032F8
:107CA00009F045CF80910C0280FFF5C0609106017C
:107CB00070910701660F771F7093070160930601AB
:107CC000A0910802B09109021097C9F0E8E0F1E034
:107CD0009B01AD014E0F5F1FF999FECF32BD21BD53
:107CE000819180BDFA9AF99A2F5F3F4FE417F5070B
:107CF00099F76A0F7B1F70930701609306018091CB
:107D0000C00085FFFCCFF092C6008091C00085FFC7
:107D1000FCCFB092C600E1CE83E00E94C73CDDCE2E
:107D200082E00E94C73CD9CE0E94763C8093090233
:107D30000E94763C80930802809106019091070191
:107D4000880F991F90930701809306010E94763C4B
:107D5000853409F49AC080910C028E7F80930C02C6
:107D60000E94763C803209F0B8CE8091C00085FF39
:107D7000FCCFF092C600A0910802B09109021097C2
:107D8000C1F180910C02082F0170182F1695117007
:107D9000E0910601F0910701AF014F5F5F4FBA011B
:107DA00020E030E00023B1F4112339F49491809164
:107DB000C00085FFFCCF9093C6002F5F3F4FCB01E3
:107DC0000196FA012A173B0780F4BC014F5F5F4F11
:107DD000002351F3F999FECFF2BDE1BDF89A90B5B9
:107DE0008091C00085FFFCCFE6CF709307016093C0
:107DF00006018091C00085FDE5CE8091C00085FF21
:107E0000F8CFE0CE81E00E94C73C67CE0E94763C6E
:107E1000803209F08CCE8091C00085FFFCCFF092BB
:107E2000C6008091C00085FFFCCFE092C600809123
:107E3000C00085FFFCCFD092C6008091C00085FFB6
:107E4000FCCFC092C6008091C00085FFFCCFB092ED
:107E5000C60043CE80E10E94C73C3FCE0E94763CE4
:107E60000E94763C182F0E94763C112309F483C0AF
:107E7000113009F484C08FE00E94C73C2ECE80915F
:107E80000C02816080930C02F1CE80910C02816023
:107E900080930C0265CF809107018823880F880B9F
:107EA0008A2180930B028091060190910701880F2F
:107EB000991F90930701809306018091080280FF2B
:107EC00009C08091080290910902019690930902DD
:107ED00080930802F894F999FECF1127E0910601EA
:107EE000F0910701C8E0D1E0809108029091090269
:107EF000103091F40091570001700130D9F303E084
:107F000000935700E8950091570001700130D9F3B4
:107F100001E100935700E8950990199000915700EE
:107F200001700130D9F301E000935700E8951395F3
:107F3000103498F011270091570001700130D9F3E7
:107F400005E000935700E89500915700017001305B
:107F5000D9F301E100935700E8953296029709F0B2
:107F6000C7CF103011F00296E5CF11248091C000E8
:107F700085FFC5CEC8CE8EE10E94C73CAECD85E957
:0C7F80000E94C73CAACDF894FFCF8000FF
:00000001FF
