:100000000C94B7000C94DF000C94DF000C94DF001C
:100010000C94DF000C94DF000C94DF000C9421069C
:100020000C94DF000C94DF000C94DF000C94DF00D4
:100030000C94DF000C94DF000C94DF000C94DF00C4
:100040000C94D7050C94DF000C94A5050C947F0547
:100050000C94DF000C94DF000C94DF000C94DF00A4
:100060000C94DF000C94DF00000000000000000092
:100070000000000000000000000000000000000080
:1000800000000000000000000028226349247E02D6
:10009000290B01420C4010523F065B4F666D7D07F5
:1000A0007F6F090A2148034B3B777C391F79713DEB
:1000B00076301E753C55372F736B332D2B3E726A8D
:1000C000366E1B31640E2308205F6C585E7B5167CF
:1000D00074050D7A3815545C53655025781C322A06
:1000E000142E13460470415D000000000000000063
:1000F0000000000000000000000000000000000000
:1001000000000000000000000028226349247E0255
:10011000390F01420C4010523F065B4F666D7D0760
:100120007F6F090A58484C4B3B777C395E79713DAB
:1001300076301E753C55373F736B336D783E726A6F
:10014000366E5B39640F2308205F7C585E7B716FCD
:1001500074050D753855545C7367506D781C726A60
:10016000142E5B460670415DE8006800AB07112461
:100170001FBECFEFD8E0DEBFCDBF12E0A0E0B1E000
:10018000E0ECFFE002C005900D92A031B107D9F775
:1001900022E0A0E1B2E001C01D92AB3DB207E1F761
:1001A00010E0C7EBD0E004C02197FE010E94D80701
:1001B000C63BD107C9F70E9493060C94DE070C9446
:1001C0000000AF92BF92CF92DF92EF92FF920F9317
:1001D0001F93CF93DF936C017B018B01040F151FDD
:1001E000EB015E01AE18BF08C017D10759F0699145
:1001F000D601ED91FC910190F081E02DC6010995A9
:10020000892B79F7C501DF91CF911F910F91FF9055
:10021000EF90DF90CF90BF90AF900895FC01538D89
:10022000448D252F30E0842F90E0821B930B5417D0
:1002300010F0CF96089501970895FC01918D828D5D
:10024000981761F0A28DAE0FBF2FB11D5D968C91F6
:10025000928D9F5F9F73928F90E008958FEF9FEF35
:100260000895FC01918D828D981731F0828DE80FF1
:10027000F11D858D90E008958FEF9FEF0895FC01AB
:10028000918D228D892F90E0805C9F4F821B910978
:100290008F73992708958EE392E00E943F0121E039
:1002A000892B09F420E0822F089580E090E0892BCB
:1002B00029F00E944B0181110C9400000895FC016B
:1002C000A48DA80FB92FB11DA35ABF4F2C91848DB7
:1002D00090E001968F739927848FA689B7892C9314
:1002E000A089B1898C91837080648C93938D848D67
:1002F000981306C00288F389E02D80818F7D80836A
:100300000895EF92FF920F931F93CF93DF93EC0129
:1003100081E0888F9B8D8C8D98131AC0E889F989AC
:10032000808185FF15C09FB7F894EE89FF896083AF
:10033000E889F98980818370806480839FBF81E030
:1003400090E0DF91CF911F910F91FF90EF90089572
:10035000F62E0B8D10E00F5F1F4F0F731127E02E4D
:100360008C8D8E110CC00FB607FCFACFE889F98985
:10037000808185FFF5CFCE010E945F01F1CFEB8D2B
:10038000EC0FFD2FF11DE35AFF4FF0829FB7F89459
:100390000B8FEA89FB8980818062CFCFCF93DF9377
:1003A000EC01888D8823B9F0AA89BB89E889F9898D
:1003B0008C9185FD03C0808186FD0DC00FB607FCC2
:1003C000F7CF8C9185FFF2CF808185FFEDCFCE01F5
:1003D0000E945F01E9CFDF91CF9108953FB7F89474
:1003E00080911E0290911F02A0912002B0912102E3
:1003F00026B5A89B05C02F3F19F00196A11DB11D80
:100400003FBFBA2FA92F982F8827BC01CD01620FBB
:10041000711D811D911D43E0660F771F881F991F75
:100420004A95D1F708958F929F92AF92BF92CF9243
:10043000DF92EF92FF926B017C010E94EE014B0173
:100440005C01C114D104E104F104B9F00E94EE0191
:10045000681979098A099B09683E734081059105ED
:1004600080F321E0C21AD108E108F10888EE880E75
:1004700083E0981EA11CB11CE4CFFF90EF90DF90A9
:10048000CF90BF90AF909F908F90089590E39093FE
:10049000100298E790931102282F22952F7097E36E
:1004A0002A3008F490E3920F909312028F7097E332
:1004B0008A3008F490E3890F80931302109214029B
:1004C00080E192E00895CF93DF93A0E1B2E0EC01E8
:1004D000C60FD11DE0E0022E000C330B8E2F860FCD
:1004E000841750F4E53041F099919217130609F4FE
:1004F0009EE2EF5F9D93F2CFF0E0E05FFD4F108250
:1005000080E192E0DF91CF910895882309F4B1C092
:10051000813009F4B1C0823009F4B1C0833009F4EC
:10052000B1C0843009F4B1C0853009F4B1C086305F
:1005300009F4B1C020E04BE067E0873041F088303B
:1005400009F4ACC0893039F420E043E060E081EB8D
:1005500091E00C9463028A3009F4A3C020E046E0E5
:1005600064E08B30A1F38C3009F49EC08D3031F4FF
:100570002AE346E060E08DEB91E0EBCF8E3009F4AA
:1005800096C08F3021F480912F020C944602803166
:1005900009F490C0813139F481E0909127029923C8
:1005A000A1F380E0F2CF823109F487C0833119F4DE
:1005B00080912C02EACF843109F482C0853131F474
:1005C00080912D0290912C02891BDFCF863109F496
:1005D0007AC0873129F480912E0280958F70D5CF13
:1005E000883109F473C0893119F480912802CDCF84
:1005F0008A3109F46EC08B3119F480912902C5CF7C
:100600008C3109F469C08D3119F480912A02BDCF73
:100610008E3109F464C08F3119F480912B02B5CF6B
:10062000803209F45FC0813219F480913D02ADCF70
:10063000823209F45AC0833219F480913C02A5CF6A
:10064000843209F455C0853219F480913A029DCF65
:10065000863209F450C0873219F480913B0295CF5D
:10066000883209F44BC0893209F04BC080913902BD
:100670008CCF82E391E008958EEF91E0089586E3B8
:1006800091E008958AE391E0089581E491E008956E
:1006900084E491E008958AE491E008958FE491E084
:1006A000089584E591E0089588E591E008958CEA45
:1006B00091E0089586EA91E0089580EA91E0089536
:1006C0008AE991E0089584E991E008958EE891E047
:1006D000089588E891E0089582E891E008958CE714
:1006E00091E0089587E791E0089583E791E0089508
:1006F0008FE691E0089589E691E0089583E691E020
:1007000008958DE591E00895CF93DF93DC0140914A
:100710003D0250E0440F551F48595E4FC5E3D2E0FB
:1007200020E09C91911109C0E22FF0E0EB5CFD4FBD
:1007300011922F5F2430E1F716C0FA016591749190
:10074000E92FEF77E60FF72FF11DE49190789E2BBC
:10075000988311968C9111978E3241F011962F5FEC
:1007600021962430F1F6DF91CF9108959068988317
:100770001296F5CF1F93CF93DF93182F80913B02F2
:10078000C3E2D2E0882311F0C5E3D2E090913C02AD
:100790009430B8F0882361F06091390284E1689F59
:1007A000B0011124072E000C880B990B0E94130234
:1007B000898188838A8189838B818A8383E080937E
:1007C0003C0280913C02C80FD11D18838F5F80933B
:1007D0003C02DF91CF911F910895FC010190002010
:1007E000E9F73197AF01481B590BBC018EE392E04A
:1007F0000C94E100CF93DF93D0E0C0E0009719F0B4
:100800000E94ED03EC0186EC91E00E94ED038C0F59
:100810009D1FDF91CF91089584E0E5E3F2E0DF01D1
:10082000982F1D929A95E9F78093180293E0909380
:10083000170290912D0291509093160280932F02EF
:1008400081E08093270282E380932D0289E18093E7
:100850002C0210922E0208950E940C0410923D0268
:1008600010923C0281E080933A0280933B0289E13E
:100870008093390208951F93CF93DF9380913002C4
:10088000811105C0DF91CF911F910C942C04813010
:1008900049F480913102817080933D02DF91CF91C4
:1008A0001F910895823061F4809131028F7031F090
:1008B000863008F085E080932F02F0CF81E0FBCFF7
:1008C000833039F4809131028F70809580932E02AD
:1008D000E5CF8430D9F4809132029091310299238E
:1008E00009F405C19F3F09F408C1882359F08F3FDF
:1008F00009F48EEF890F981738F480932D029093A6
:100900002C02CCCF81E0F6CF8FEFF7CF853009F006
:100910005FC010913202D09131021B3208F019E20F
:100920008091350290913602A0913702B091380241
:100930008093280290932902A0932A02B0932B025D
:1009400089EC91E00E94FA03C0E081ED91E00E9401
:10095000ED038C2F0E944602009711F00E94ED03D8
:1009600081ED91E00E94ED038C2F0E94850200979B
:1009700011F00E94ED0381ED91E00E94ED0381E012
:100980008C0F0E9485020E94FA03CE5FCA32E9F6FC
:100990001D1768F08D2F0E9485020E94840360ED70
:1009A00077E080E090E00E941302DF5FF1CF80915A
:1009B000280290912902A0912A02B0912B028093E3
:1009C000350290933602A0933702B093380266CF77
:1009D000863049F480913C02843008F05FCF8F5F0D
:1009E00080933C025BCF873019F41092270256CFD8
:1009F000883039F480913C02882309F44FCF81502C
:100A0000EFCF893011F484E0EBCF8A30F1F480919C
:100A10003B02811143CF8091230290912402A09147
:100A20002502B09126028093350290933602A0935E
:100A30003702B0933802E3E2F2E084E0DF011D9276
:100A40008A95E9F710923C0229CF8B3021F481E09E
:100A50008093270223CF8C3059F484E0E5E3F2E061
:100A6000DF01982F1D929A95E9F7E3E2F2E0E6CFD5
:100A70008D3041F38E3019F410923A020FCF8F303F
:100A800021F481E080933A0209CF803121F481E0A2
:100A900080933B0203CF813119F410923B02FECECA
:100AA000823129F48091310280933902F7CE83316B
:100AB00039F480913102DF91CF911F910C94BA03E8
:100AC000843189F480913102809335028091320221
:100AD00080933602809133028093370280913402F2
:100AE00080933802DBCE8F3109F0D8CECBCE91E0A7
:100AF0008111FDCE81E0890F00CF9EEFF9CF1F92CB
:100B00000F920FB60F9211242F933F934F935F9341
:100B10006F937F938F939F93AF93BF93EF93FF93C5
:100B20008EE392E00E945F01FF91EF91BF91AF9140
:100B30009F918F917F916F915F914F913F912F91F5
:100B40000F900FBE0F901F9018951F920F920FB627
:100B50000F9211242F938F939F93EF93FF93E09124
:100B60004E02F0914F028081E0915402F0915502C3
:100B700082FD1BC09081809157028F5F8F732091FF
:100B80005802821741F0E0915702F0E0E25CFD4F1D
:100B9000958F80935702FF91EF919F918F912F91A5
:100BA0000F900FBE0F901F9018958081F4CF1F9269
:100BB0000F920FB60F9211242F933F938F939F9311
:100BC000AF93BF9380911A0290911B02A0911C02D7
:100BD000B0911D023091190226E0230F2D3758F5F0
:100BE0000296A11DB11D2093190280931A029093C1
:100BF0001B02A0931C02B0931D0280911E029091D3
:100C00001F02A0912002B09121020196A11DB11DE9
:100C100080931E0290931F02A0932002B0932102A2
:100C2000BF91AF919F918F913F912F910F900FBEE8
:100C30000F901F90189529E8230F0396A11DB11D51
:100C4000D2CF1F920F920FB60F9211242F933F9382
:100C50004F938F939F93EF93FF93809118028F5F31
:100C60008093180290912F02891708F01BB8809189
:100C700018028530E8F110921802809117028F5FF8
:100C8000843008F041C08093170240911702E42F8E
:100C9000F0E080912702811111C080912E0290E036
:100CA000042E02C0959587950A94E2F780FD06C050
:100CB0009091160280912C029817D0F4EB5CFD4FB6
:100CC000208130E0C901959587959595879588B9DC
:100CD00084E090E002C0880F991F4A95E2F78C7F6C
:100CE0009370F6E0220F331FFA95E1F7822B8BB950
:100CF000FF91EF919F918F914F913F912F910F9085
:100D00000FBE0F901F901895109217028091160237
:100D10008F5F8093160290912D02891708F4B5CF4A
:100D200010921602B2CF789484B5826084BD84B5E7
:100D3000816084BD85B5826085BD85B5816085BDD6
:100D400080916E00816080936E001092810080918E
:100D50008100826080938100809181008160809316
:100D60008100809180008160809380008091B1003B
:100D700084608093B1008091B00081608093B00066
:100D800080917A00846080937A0080917A008260FA
:100D900080937A0080917A008E7F80937A00809190
:100DA0007A00806880937A001092C100E0914E0230
:100DB000F0914F02C2E0C083E0914A02F0914B02F1
:100DC0001082E0914C02F0914D0288E080831092F5
:100DD0005602E0915202F091530286E08083E09146
:100DE0005002F0915102808180618083E091500235
:100DF000F0915102808188608083E0915002F091EF
:100E00005102808180688083E0915002F09151020C
:100E100080818F7D808383ED91E00E94FA0318B872
:100E20001BB88FEF87B98AB90E940C04F89410920E
:100E3000B0008CE78093B300C093B00084E080934F
:100E4000B100C093700078940E942C0482E092E07C
:100E50000E94840364EF71E080E090E00E9413023E
:100E60008BE092E00E948403E0913002F0E0EE5EBD
:100E7000FE4F808180932202C0E0D0E011E08EE33B
:100E800092E00E941D019C012F3F3207E1F080910A
:100E90002202E0913002F0E0EE5EFE4F9081891771
:100EA000D8F4E82FF0E0E05DFD4F20838F5F809362
:100EB0002202E0913002F0E0EE5EFE4F9081891355
:100EC00002C00E943B042097D1F20E944B0188236C
:100ED000B1F20E940000D3CF922F9F77903270F42E
:100EE000E92FF0E0EE5EFE4F8081882361F390935E
:100EF000300210932202813031F7E3CF9E32C1F4E9
:100F000080913A028823A1F080913C028823D9F293
:100F100090913B02E3E2F2E0992311F0E5E3F2E085
:100F20008150990BE80FF91F808180688083CBCFB7
:100F3000E0913D02F0E0EE0FFF1FE859FE4F4591B2
:100F40005491FA01E90FF11DE491822F80788E2BE4
:100F50000E94BA03B8CFEEE3F2E01382128288EE69
:100F600093E0A0E0B0E084839583A683B78384E018
:100F700091E09183808385EC90E09587848784EC71
:100F800090E09787868780EC90E0918B808B81EC56
:100F900090E0938B828B82EC90E0958B848B86EC37
:100FA00090E0978B868B118E128E138E148E08957F
:100FB000EE0FFF1F0590F491E02D0994F894FFCFF8
:100FC000000000008101E1000E01CE013F011D0182
:100FD00031010102020203030101010101010101CA
:100FE00001010101020205000000000000000000F4
:100FF00000014150500049444500312E382E313314
:1010000000434300372E332E300059454152004DE6
:101010006E7468004441590054494D4500204E2EDD
:10102000412E0043482E746D0043482E656E0044E7
:101030004F540043555200464F4E54004453502ED7
:1010400033004453502E32004453502E3100445349
:10105000502E3000424C2E6D6B00424C2E6C6F00B7
:10106000424C2E686900424C2E656E004252495433
:10107000004D617920203820323032320031343A4C
:1010800034373A3330000D0A00537472696E677357
:101090000020000A0A536576656E205365676D650A
:1010A0006E74206F7665722053657269616C2028BA
:1010B00053536F53292076657273696F6E20352EF6
:1010C0003600382E382E382E382E0053536F5300EA
:00000001FF
